{
  "_format": "hh-sol-artifact-1",
  "contractName": "RootAISecToken",
  "sourceName": "contracts/RootAISecToken.sol",
  "abi": [
    {
      "inputs": [
        {
          "internalType": "uint256",
          "name": "initialSupply",
          "type": "uint256"
        }
      ],
      "stateMutability": "nonpayable",
      "type": "constructor"
    },
    {
      "inputs": [
        {
          "internalType": "address",
          "name": "spender",
          "type": "address"
        },
        {
          "internalType": "uint256",
          "name": "allowance",
          "type": "uint256"
        },
        {
          "internalType": "uint256",
          "name": "needed",
          "type": "uint256"
        }
      ],
      "name": "ERC20InsufficientAllowance",
      "type": "error"
    },
    {
      "inputs": [
        {
          "internalType": "address",
          "name": "sender",
          "type": "address"
        },
        {
          "internalType": "uint256",
          "name": "balance",
          "type": "uint256"
        },
        {
          "internalType": "uint256",
          "name": "needed",
          "type": "uint256"
        }
      ],
      "name": "ERC20InsufficientBalance",
      "type": "error"
    },
    {
      "inputs": [
        {
          "internalType": "address",
          "name": "approver",
          "type": "address"
        }
      ],
      "name": "ERC20InvalidApprover",
      "type": "error"
    },
    {
      "inputs": [
        {
          "internalType": "address",
          "name": "receiver",
          "type": "address"
        }
      ],
      "name": "ERC20InvalidReceiver",
      "type": "error"
    },
    {
      "inputs": [
        {
          "internalType": "address",
          "name": "sender",
          "type": "address"
        }
      ],
      "name": "ERC20InvalidSender",
      "type": "error"
    },
    {
      "inputs": [
        {
          "internalType": "address",
          "name": "spender",
          "type": "address"
        }
      ],
      "name": "ERC20InvalidSpender",
      "type": "error"
    },
    {
      "inputs": [],
      "name": "ReentrancyGuardReentrantCall",
      "type": "error"
    },
    {
      "anonymous": false,
      "inputs": [
        {
          "indexed": true,
          "internalType": "address",
          "name": "owner",
          "type": "address"
        },
        {
          "indexed": true,
          "internalType": "address",
          "name": "spender",
          "type": "address"
        },
        {
          "indexed": false,
          "internalType": "uint256",
          "name": "value",
          "type": "uint256"
        }
      ],
      "name": "Approval",
      "type": "event"
    },
    {
      "anonymous": false,
      "inputs": [
        {
          "indexed": true,
          "internalType": "address",
          "name": "user",
          "type": "address"
        },
        {
          "indexed": false,
          "internalType": "string",
          "name": "contractHash",
          "type": "string"
        }
      ],
      "name": "AuditRequested",
      "type": "event"
    },
    {
      "anonymous": false,
      "inputs": [
        {
          "indexed": true,
          "internalType": "address",
          "name": "researcher",
          "type": "address"
        },
        {
          "indexed": false,
          "internalType": "string",
          "name": "guideHash",
          "type": "string"
        }
      ],
      "name": "GuideUploaded",
      "type": "event"
    },
    {
      "anonymous": false,
      "inputs": [
        {
          "indexed": true,
          "internalType": "address",
          "name": "user",
          "type": "address"
        },
        {
          "indexed": false,
          "internalType": "uint256",
          "name": "amount",
          "type": "uint256"
        }
      ],
      "name": "TokensRewarded",
      "type": "event"
    },
    {
      "anonymous": false,
      "inputs": [
        {
          "indexed": true,
          "internalType": "address",
          "name": "from",
          "type": "address"
        },
        {
          "indexed": true,
          "internalType": "address",
          "name": "to",
          "type": "address"
        },
        {
          "indexed": false,
          "internalType": "uint256",
          "name": "value",
          "type": "uint256"
        }
      ],
      "name": "Transfer",
      "type": "event"
    },
    {
      "inputs": [],
      "name": "REWARD_AMOUNT",
      "outputs": [
        {
          "internalType": "uint256",
          "name": "",
          "type": "uint256"
        }
      ],
      "stateMutability": "view",
      "type": "function"
    },
    {
      "inputs": [
        {
          "internalType": "address",
          "name": "owner",
          "type": "address"
        },
        {
          "internalType": "address",
          "name": "spender",
          "type": "address"
        }
      ],
      "name": "allowance",
      "outputs": [
        {
          "internalType": "uint256",
          "name": "",
          "type": "uint256"
        }
      ],
      "stateMutability": "view",
      "type": "function"
    },
    {
      "inputs": [
        {
          "internalType": "address",
          "name": "spender",
          "type": "address"
        },
        {
          "internalType": "uint256",
          "name": "value",
          "type": "uint256"
        }
      ],
      "name": "approve",
      "outputs": [
        {
          "internalType": "bool",
          "name": "",
          "type": "bool"
        }
      ],
      "stateMutability": "nonpayable",
      "type": "function"
    },
    {
      "inputs": [
        {
          "internalType": "address",
          "name": "account",
          "type": "address"
        }
      ],
      "name": "balanceOf",
      "outputs": [
        {
          "internalType": "uint256",
          "name": "",
          "type": "uint256"
        }
      ],
      "stateMutability": "view",
      "type": "function"
    },
    {
      "inputs": [],
      "name": "decimals",
      "outputs": [
        {
          "internalType": "uint8",
          "name": "",
          "type": "uint8"
        }
      ],
      "stateMutability": "view",
      "type": "function"
    },
    {
      "inputs": [
        {
          "internalType": "address",
          "name": "to",
          "type": "address"
        },
        {
          "internalType": "uint256",
          "name": "amount",
          "type": "uint256"
        }
      ],
      "name": "mint",
      "outputs": [],
      "stateMutability": "nonpayable",
      "type": "function"
    },
    {
      "inputs": [],
      "name": "name",
      "outputs": [
        {
          "internalType": "string",
          "name": "",
          "type": "string"
        }
      ],
      "stateMutability": "view",
      "type": "function"
    },
    {
      "inputs": [
        {
          "internalType": "string",
          "name": "contractHash",
          "type": "string"
        }
      ],
      "name": "requestAudit",
      "outputs": [],
      "stateMutability": "nonpayable",
      "type": "function"
    },
    {
      "inputs": [],
      "name": "symbol",
      "outputs": [
        {
          "internalType": "string",
          "name": "",
          "type": "string"
        }
      ],
      "stateMutability": "view",
      "type": "function"
    },
    {
      "inputs": [],
      "name": "totalSupply",
      "outputs": [
        {
          "internalType": "uint256",
          "name": "",
          "type": "uint256"
        }
      ],
      "stateMutability": "view",
      "type": "function"
    },
    {
      "inputs": [
        {
          "internalType": "address",
          "name": "to",
          "type": "address"
        },
        {
          "internalType": "uint256",
          "name": "value",
          "type": "uint256"
        }
      ],
      "name": "transfer",
      "outputs": [
        {
          "internalType": "bool",
          "name": "",
          "type": "bool"
        }
      ],
      "stateMutability": "nonpayable",
      "type": "function"
    },
    {
      "inputs": [
        {
          "internalType": "address",
          "name": "from",
          "type": "address"
        },
        {
          "internalType": "address",
          "name": "to",
          "type": "address"
        },
        {
          "internalType": "uint256",
          "name": "value",
          "type": "uint256"
        }
      ],
      "name": "transferFrom",
      "outputs": [
        {
          "internalType": "bool",
          "name": "",
          "type": "bool"
        }
      ],
      "stateMutability": "nonpayable",
      "type": "function"
    },
    {
      "inputs": [
        {
          "internalType": "string",
          "name": "guideHash",
          "type": "string"
        }
      ],
      "name": "uploadGuide",
      "outputs": [],
      "stateMutability": "nonpayable",
      "type": "function"
    },
    {
      "inputs": [
        {
          "internalType": "string",
          "name": "dataHash",
          "type": "string"
        }
      ],
      "name": "validateGuideOrPrompt",
      "outputs": [
        {
          "internalType": "bool",
          "name": "",
          "type": "bool"
        }
      ],
      "stateMutability": "pure",
      "type": "function"
    }
  ],
  "bytecode": "0x60806040523480156200001157600080fd5b5060405162001c8538038062001c858339818101604052810190620000379190620003fc565b6040518060400160405280600e81526020017f526f6f744149536563546f6b656e0000000000000000000000000000000000008152506040518060400160405280600381526020017f52415300000000000000000000000000000000000000000000000000000000008152508160039081620000b491906200069e565b508060049081620000c691906200069e565b5050506001600581905550620000f833670de0b6b3a764000083620000ec9190620007b4565b620000ff60201b60201c565b5062000907565b600073ffffffffffffffffffffffffffffffffffffffff168273ffffffffffffffffffffffffffffffffffffffff1603620001745760006040517fec442f050000000000000000000000000000000000000000000000000000000081526004016200016b919062000844565b60405180910390fd5b62000188600083836200018c60201b60201c565b5050565b600073ffffffffffffffffffffffffffffffffffffffff168373ffffffffffffffffffffffffffffffffffffffff1603620001e2578060026000828254620001d5919062000861565b92505081905550620002b8565b60008060008573ffffffffffffffffffffffffffffffffffffffff1673ffffffffffffffffffffffffffffffffffffffff1681526020019081526020016000205490508181101562000271578381836040517fe450d38c0000000000000000000000000000000000000000000000000000000081526004016200026893929190620008ad565b60405180910390fd5b8181036000808673ffffffffffffffffffffffffffffffffffffffff1673ffffffffffffffffffffffffffffffffffffffff16815260200190815260200160002081905550505b600073ffffffffffffffffffffffffffffffffffffffff168273ffffffffffffffffffffffffffffffffffffffff160362000303578060026000828254039250508190555062000350565b806000808473ffffffffffffffffffffffffffffffffffffffff1673ffffffffffffffffffffffffffffffffffffffff168152602001908152602001600020600082825401925050819055505b8173ffffffffffffffffffffffffffffffffffffffff168373ffffffffffffffffffffffffffffffffffffffff167fddf252ad1be2c89b69c2b068fc378daa952ba7f163c4a11628f55a4df523b3ef83604051620003af9190620008ea565b60405180910390a3505050565b600080fd5b6000819050919050565b620003d681620003c1565b8114620003e257600080fd5b50565b600081519050620003f681620003cb565b92915050565b600060208284031215620004155762000414620003bc565b5b60006200042584828501620003e5565b91505092915050565b600081519050919050565b7f4e487b7100000000000000000000000000000000000000000000000000000000600052604160045260246000fd5b7f4e487b7100000000000000000000000000000000000000000000000000000000600052602260045260246000fd5b60006002820490506001821680620004b057607f821691505b602082108103620004c657620004c562000468565b5b50919050565b60008190508160005260206000209050919050565b60006020601f8301049050919050565b600082821b905092915050565b600060088302620005307fffffffffffffffffffffffffffffffffffffffffffffffffffffffffffffffff82620004f1565b6200053c8683620004f1565b95508019841693508086168417925050509392505050565b6000819050919050565b60006200057f620005796200057384620003c1565b62000554565b620003c1565b9050919050565b6000819050919050565b6200059b836200055e565b620005b3620005aa8262000586565b848454620004fe565b825550505050565b600090565b620005ca620005bb565b620005d781848462000590565b505050565b5b81811015620005ff57620005f3600082620005c0565b600181019050620005dd565b5050565b601f8211156200064e576200061881620004cc565b6200062384620004e1565b8101602085101562000633578190505b6200064b6200064285620004e1565b830182620005dc565b50505b505050565b600082821c905092915050565b6000620006736000198460080262000653565b1980831691505092915050565b60006200068e838362000660565b9150826002028217905092915050565b620006a9826200042e565b67ffffffffffffffff811115620006c557620006c462000439565b5b620006d1825462000497565b620006de82828562000603565b600060209050601f83116001811462000716576000841562000701578287015190505b6200070d858262000680565b8655506200077d565b601f1984166200072686620004cc565b60005b82811015620007505784890151825560018201915060208501945060208101905062000729565b868310156200077057848901516200076c601f89168262000660565b8355505b6001600288020188555050505b505050505050565b7f4e487b7100000000000000000000000000000000000000000000000000000000600052601160045260246000fd5b6000620007c182620003c1565b9150620007ce83620003c1565b9250828202620007de81620003c1565b91508282048414831517620007f857620007f762000785565b5b5092915050565b600073ffffffffffffffffffffffffffffffffffffffff82169050919050565b60006200082c82620007ff565b9050919050565b6200083e816200081f565b82525050565b60006020820190506200085b600083018462000833565b92915050565b60006200086e82620003c1565b91506200087b83620003c1565b925082820190508082111562000896576200089562000785565b5b92915050565b620008a781620003c1565b82525050565b6000606082019050620008c4600083018662000833565b620008d360208301856200089c565b620008e260408301846200089c565b949350505050565b60006020820190506200090160008301846200089c565b92915050565b61136e80620009176000396000f3fe608060405234801561001057600080fd5b50600436106100ea5760003560e01c806370a082311161008c578063a9059cbb11610066578063a9059cbb1461024b578063cf8494421461027b578063d1a6929314610299578063dd62ed3e146102c9576100ea565b806370a08231146101e1578063714c3cc11461021157806395d89b411461022d576100ea565b806323b872dd116100c857806323b872dd1461015b578063313ce5671461018b57806340c10f19146101a95780634649998c146101c5576100ea565b806306fdde03146100ef578063095ea7b31461010d57806318160ddd1461013d575b600080fd5b6100f76102f9565b6040516101049190610da7565b60405180910390f35b61012760048036038101906101229190610e71565b61038b565b6040516101349190610ecc565b60405180910390f35b6101456103ae565b6040516101529190610ef6565b60405180910390f35b61017560048036038101906101709190610f11565b6103b8565b6040516101829190610ecc565b60405180910390f35b6101936103e7565b6040516101a09190610f80565b60405180910390f35b6101c360048036038101906101be9190610e71565b6103f0565b005b6101df60048036038101906101da91906110d0565b6103fe565b005b6101fb60048036038101906101f69190611119565b61045f565b6040516102089190610ef6565b60405180910390f35b61022b600480360381019061022691906110d0565b6104a7565b005b610235610508565b6040516102429190610da7565b60405180910390f35b61026560048036038101906102609190610e71565b61059a565b6040516102729190610ecc565b60405180910390f35b6102836105bd565b6040516102909190610ef6565b60405180910390f35b6102b360048036038101906102ae91906110d0565b6105c9565b6040516102c09190610ecc565b60405180910390f35b6102e360048036038101906102de9190611146565b610620565b6040516102f09190610ef6565b60405180910390f35b606060038054610308906111b5565b80601f0160208091040260200160405190810160405280929190818152602001828054610334906111b5565b80156103815780601f1061035657610100808354040283529160200191610381565b820191906000526020600020905b81548152906001019060200180831161036457829003601f168201915b5050505050905090565b6000806103966106a7565b90506103a38185856106af565b600191505092915050565b6000600254905090565b6000806103c36106a7565b90506103d08582856106c1565b6103db858585610755565b60019150509392505050565b60006012905090565b6103fa8282610849565b5050565b6104066108cb565b3373ffffffffffffffffffffffffffffffffffffffff167f2d5b17c3e52391168dbd4bc8288b774913c3a81c649037bad4b2c62674e2f3de8260405161044c9190610da7565b60405180910390a261045c610911565b50565b60008060008373ffffffffffffffffffffffffffffffffffffffff1673ffffffffffffffffffffffffffffffffffffffff168152602001908152602001600020549050919050565b6104af6108cb565b3373ffffffffffffffffffffffffffffffffffffffff167fa1b06d2877b6e95209e1fc410265df3623f8a4931e623c2cd35581e3124de464826040516104f59190610da7565b60405180910390a2610505610911565b50565b606060048054610517906111b5565b80601f0160208091040260200160405190810160405280929190818152602001828054610543906111b5565b80156105905780601f1061056557610100808354040283529160200191610590565b820191906000526020600020905b81548152906001019060200180831161057357829003601f168201915b5050505050905090565b6000806105a56106a7565b90506105b2818585610755565b600191505092915050565b678ac7230489e8000081565b60006040516020016105da90611217565b6040516020818303038152906040528051906020012082604051602001610601919061125d565b6040516020818303038152906040528051906020012014159050919050565b6000600160008473ffffffffffffffffffffffffffffffffffffffff1673ffffffffffffffffffffffffffffffffffffffff16815260200190815260200160002060008373ffffffffffffffffffffffffffffffffffffffff1673ffffffffffffffffffffffffffffffffffffffff16815260200190815260200160002054905092915050565b600033905090565b6106bc838383600161091b565b505050565b60006106cd8484610620565b90507fffffffffffffffffffffffffffffffffffffffffffffffffffffffffffffffff811461074f578181101561073f578281836040517ffb8f41b200000000000000000000000000000000000000000000000000000000815260040161073693929190611283565b60405180910390fd5b61074e8484848403600061091b565b5b50505050565b600073ffffffffffffffffffffffffffffffffffffffff168373ffffffffffffffffffffffffffffffffffffffff16036107c75760006040517f96c6fd1e0000000000000000000000000000000000000000000000000000000081526004016107be91906112ba565b60405180910390fd5b600073ffffffffffffffffffffffffffffffffffffffff168273ffffffffffffffffffffffffffffffffffffffff16036108395760006040517fec442f0500000000000000000000000000000000000000000000000000000000815260040161083091906112ba565b60405180910390fd5b610844838383610af2565b505050565b600073ffffffffffffffffffffffffffffffffffffffff168273ffffffffffffffffffffffffffffffffffffffff16036108bb5760006040517fec442f050000000000000000000000000000000000000000000000000000000081526004016108b291906112ba565b60405180910390fd5b6108c760008383610af2565b5050565b600260055403610907576040517f3ee5aeb500000000000000000000000000000000000000000000000000000000815260040160405180910390fd5b6002600581905550565b6001600581905550565b600073ffffffffffffffffffffffffffffffffffffffff168473ffffffffffffffffffffffffffffffffffffffff160361098d5760006040517fe602df0500000000000000000000000000000000000000000000000000000000815260040161098491906112ba565b60405180910390fd5b600073ffffffffffffffffffffffffffffffffffffffff168373ffffffffffffffffffffffffffffffffffffffff16036109ff5760006040517f94280d620000000000000000000000000000000000000000000000000000000081526004016109f691906112ba565b60405180910390fd5b81600160008673ffffffffffffffffffffffffffffffffffffffff1673ffffffffffffffffffffffffffffffffffffffff16815260200190815260200160002060008573ffffffffffffffffffffffffffffffffffffffff1673ffffffffffffffffffffffffffffffffffffffff168152602001908152602001600020819055508015610aec578273ffffffffffffffffffffffffffffffffffffffff168473ffffffffffffffffffffffffffffffffffffffff167f8c5be1e5ebec7d5bd14f71427d1e84f3dd0314c0f7b2291e5b200ac8c7c3b92584604051610ae39190610ef6565b60405180910390a35b50505050565b600073ffffffffffffffffffffffffffffffffffffffff168373ffffffffffffffffffffffffffffffffffffffff1603610b44578060026000828254610b389190611304565b92505081905550610c17565b60008060008573ffffffffffffffffffffffffffffffffffffffff1673ffffffffffffffffffffffffffffffffffffffff16815260200190815260200160002054905081811015610bd0578381836040517fe450d38c000000000000000000000000000000000000000000000000000000008152600401610bc793929190611283565b60405180910390fd5b8181036000808673ffffffffffffffffffffffffffffffffffffffff1673ffffffffffffffffffffffffffffffffffffffff16815260200190815260200160002081905550505b600073ffffffffffffffffffffffffffffffffffffffff168273ffffffffffffffffffffffffffffffffffffffff1603610c605780600260008282540392505081905550610cad565b806000808473ffffffffffffffffffffffffffffffffffffffff1673ffffffffffffffffffffffffffffffffffffffff168152602001908152602001600020600082825401925050819055505b8173ffffffffffffffffffffffffffffffffffffffff168373ffffffffffffffffffffffffffffffffffffffff167fddf252ad1be2c89b69c2b068fc378daa952ba7f163c4a11628f55a4df523b3ef83604051610d0a9190610ef6565b60405180910390a3505050565b600081519050919050565b600082825260208201905092915050565b60005b83811015610d51578082015181840152602081019050610d36565b60008484015250505050565b6000601f19601f8301169050919050565b6000610d7982610d17565b610d838185610d22565b9350610d93818560208601610d33565b610d9c81610d5d565b840191505092915050565b60006020820190508181036000830152610dc18184610d6e565b905092915050565b6000604051905090565b600080fd5b600080fd5b600073ffffffffffffffffffffffffffffffffffffffff82169050919050565b6000610e0882610ddd565b9050919050565b610e1881610dfd565b8114610e2357600080fd5b50565b600081359050610e3581610e0f565b92915050565b6000819050919050565b610e4e81610e3b565b8114610e5957600080fd5b50565b600081359050610e6b81610e45565b92915050565b60008060408385031215610e8857610e87610dd3565b5b6000610e9685828601610e26565b9250506020610ea785828601610e5c565b9150509250929050565b60008115159050919050565b610ec681610eb1565b82525050565b6000602082019050610ee16000830184610ebd565b92915050565b610ef081610e3b565b82525050565b6000602082019050610f0b6000830184610ee7565b92915050565b600080600060608486031215610f2a57610f29610dd3565b5b6000610f3886828701610e26565b9350506020610f4986828701610e26565b9250506040610f5a86828701610e5c565b9150509250925092565b600060ff82169050919050565b610f7a81610f64565b82525050565b6000602082019050610f956000830184610f71565b92915050565b600080fd5b600080fd5b7f4e487b7100000000000000000000000000000000000000000000000000000000600052604160045260246000fd5b610fdd82610d5d565b810181811067ffffffffffffffff82111715610ffc57610ffb610fa5565b5b80604052505050565b600061100f610dc9565b905061101b8282610fd4565b919050565b600067ffffffffffffffff82111561103b5761103a610fa5565b5b61104482610d5d565b9050602081019050919050565b82818337600083830152505050565b600061107361106e84611020565b611005565b90508281526020810184848401111561108f5761108e610fa0565b5b61109a848285611051565b509392505050565b600082601f8301126110b7576110b6610f9b565b5b81356110c7848260208601611060565b91505092915050565b6000602082840312156110e6576110e5610dd3565b5b600082013567ffffffffffffffff81111561110457611103610dd8565b5b611110848285016110a2565b91505092915050565b60006020828403121561112f5761112e610dd3565b5b600061113d84828501610e26565b91505092915050565b6000806040838503121561115d5761115c610dd3565b5b600061116b85828601610e26565b925050602061117c85828601610e26565b9150509250929050565b7f4e487b7100000000000000000000000000000000000000000000000000000000600052602260045260246000fd5b600060028204905060018216806111cd57607f821691505b6020821081036111e0576111df611186565b5b50919050565b600081905092915050565b50565b60006112016000836111e6565b915061120c826111f1565b600082019050919050565b6000611222826111f4565b9150819050919050565b600061123782610d17565b61124181856111e6565b9350611251818560208601610d33565b80840191505092915050565b6000611269828461122c565b915081905092915050565b61127d81610dfd565b82525050565b60006060820190506112986000830186611274565b6112a56020830185610ee7565b6112b26040830184610ee7565b949350505050565b60006020820190506112cf6000830184611274565b92915050565b7f4e487b7100000000000000000000000000000000000000000000000000000000600052601160045260246000fd5b600061130f82610e3b565b915061131a83610e3b565b9250828201905080821115611332576113316112d5565b5b9291505056fea2646970667358221220f8dfbd86b2199e6f13bbc968d629ba7a1ca237e6653c472948ffe5ca1ae13ef864736f6c63430008140033",
  "linkReferences": {},
  "deployedLinkReferences": {}
}