{
  "_format": "hh-sol-artifact-1",
  "contractName": "RootAISecToken",
  "sourceName": "contracts/RootAISecToken.sol",
  "abi": [
    {
      "inputs": [
        {
          "internalType": "uint256",
          "name": "initialSupply",
          "type": "uint256"
        }
      ],
      "stateMutability": "nonpayable",
      "type": "constructor"
    },
    {
      "inputs": [
        {
          "internalType": "address",
          "name": "spender",
          "type": "address"
        },
        {
          "internalType": "uint256",
          "name": "allowance",
          "type": "uint256"
        },
        {
          "internalType": "uint256",
          "name": "needed",
          "type": "uint256"
        }
      ],
      "name": "ERC20InsufficientAllowance",
      "type": "error"
    },
    {
      "inputs": [
        {
          "internalType": "address",
          "name": "sender",
          "type": "address"
        },
        {
          "internalType": "uint256",
          "name": "balance",
          "type": "uint256"
        },
        {
          "internalType": "uint256",
          "name": "needed",
          "type": "uint256"
        }
      ],
      "name": "ERC20InsufficientBalance",
      "type": "error"
    },
    {
      "inputs": [
        {
          "internalType": "address",
          "name": "approver",
          "type": "address"
        }
      ],
      "name": "ERC20InvalidApprover",
      "type": "error"
    },
    {
      "inputs": [
        {
          "internalType": "address",
          "name": "receiver",
          "type": "address"
        }
      ],
      "name": "ERC20InvalidReceiver",
      "type": "error"
    },
    {
      "inputs": [
        {
          "internalType": "address",
          "name": "sender",
          "type": "address"
        }
      ],
      "name": "ERC20InvalidSender",
      "type": "error"
    },
    {
      "inputs": [
        {
          "internalType": "address",
          "name": "spender",
          "type": "address"
        }
      ],
      "name": "ERC20InvalidSpender",
      "type": "error"
    },
    {
      "inputs": [],
      "name": "ReentrancyGuardReentrantCall",
      "type": "error"
    },
    {
      "anonymous": false,
      "inputs": [
        {
          "indexed": true,
          "internalType": "address",
          "name": "owner",
          "type": "address"
        },
        {
          "indexed": true,
          "internalType": "address",
          "name": "spender",
          "type": "address"
        },
        {
          "indexed": false,
          "internalType": "uint256",
          "name": "value",
          "type": "uint256"
        }
      ],
      "name": "Approval",
      "type": "event"
    },
    {
      "anonymous": false,
      "inputs": [
        {
          "indexed": true,
          "internalType": "address",
          "name": "user",
          "type": "address"
        },
        {
          "indexed": false,
          "internalType": "string",
          "name": "contractHash",
          "type": "string"
        }
      ],
      "name": "AuditRequested",
      "type": "event"
    },
    {
      "anonymous": false,
      "inputs": [
        {
          "indexed": true,
          "internalType": "address",
          "name": "researcher",
          "type": "address"
        },
        {
          "indexed": false,
          "internalType": "string",
          "name": "guideHash",
          "type": "string"
        }
      ],
      "name": "GuideUploaded",
      "type": "event"
    },
    {
      "anonymous": false,
      "inputs": [
        {
          "indexed": true,
          "internalType": "address",
          "name": "user",
          "type": "address"
        },
        {
          "indexed": false,
          "internalType": "uint256",
          "name": "amount",
          "type": "uint256"
        }
      ],
      "name": "TokensRewarded",
      "type": "event"
    },
    {
      "anonymous": false,
      "inputs": [
        {
          "indexed": true,
          "internalType": "address",
          "name": "from",
          "type": "address"
        },
        {
          "indexed": true,
          "internalType": "address",
          "name": "to",
          "type": "address"
        },
        {
          "indexed": false,
          "internalType": "uint256",
          "name": "value",
          "type": "uint256"
        }
      ],
      "name": "Transfer",
      "type": "event"
    },
    {
      "inputs": [],
      "name": "REWARD_AMOUNT",
      "outputs": [
        {
          "internalType": "uint256",
          "name": "",
          "type": "uint256"
        }
      ],
      "stateMutability": "view",
      "type": "function"
    },
    {
      "inputs": [
        {
          "internalType": "address",
          "name": "admin",
          "type": "address"
        }
      ],
      "name": "addAdmin",
      "outputs": [],
      "stateMutability": "nonpayable",
      "type": "function"
    },
    {
      "inputs": [
        {
          "internalType": "uint256",
          "name": "",
          "type": "uint256"
        }
      ],
      "name": "adminList",
      "outputs": [
        {
          "internalType": "address",
          "name": "",
          "type": "address"
        }
      ],
      "stateMutability": "view",
      "type": "function"
    },
    {
      "inputs": [
        {
          "internalType": "address",
          "name": "",
          "type": "address"
        }
      ],
      "name": "admins",
      "outputs": [
        {
          "internalType": "bool",
          "name": "",
          "type": "bool"
        }
      ],
      "stateMutability": "view",
      "type": "function"
    },
    {
      "inputs": [
        {
          "internalType": "address",
          "name": "owner",
          "type": "address"
        },
        {
          "internalType": "address",
          "name": "spender",
          "type": "address"
        }
      ],
      "name": "allowance",
      "outputs": [
        {
          "internalType": "uint256",
          "name": "",
          "type": "uint256"
        }
      ],
      "stateMutability": "view",
      "type": "function"
    },
    {
      "inputs": [
        {
          "internalType": "address",
          "name": "spender",
          "type": "address"
        },
        {
          "internalType": "uint256",
          "name": "value",
          "type": "uint256"
        }
      ],
      "name": "approve",
      "outputs": [
        {
          "internalType": "bool",
          "name": "",
          "type": "bool"
        }
      ],
      "stateMutability": "nonpayable",
      "type": "function"
    },
    {
      "inputs": [
        {
          "internalType": "address",
          "name": "account",
          "type": "address"
        }
      ],
      "name": "balanceOf",
      "outputs": [
        {
          "internalType": "uint256",
          "name": "",
          "type": "uint256"
        }
      ],
      "stateMutability": "view",
      "type": "function"
    },
    {
      "inputs": [],
      "name": "decimals",
      "outputs": [
        {
          "internalType": "uint8",
          "name": "",
          "type": "uint8"
        }
      ],
      "stateMutability": "view",
      "type": "function"
    },
    {
      "inputs": [],
      "name": "listAdmins",
      "outputs": [
        {
          "internalType": "address[]",
          "name": "",
          "type": "address[]"
        }
      ],
      "stateMutability": "view",
      "type": "function"
    },
    {
      "inputs": [
        {
          "internalType": "address",
          "name": "to",
          "type": "address"
        },
        {
          "internalType": "uint256",
          "name": "amount",
          "type": "uint256"
        }
      ],
      "name": "mint",
      "outputs": [],
      "stateMutability": "nonpayable",
      "type": "function"
    },
    {
      "inputs": [],
      "name": "name",
      "outputs": [
        {
          "internalType": "string",
          "name": "",
          "type": "string"
        }
      ],
      "stateMutability": "view",
      "type": "function"
    },
    {
      "inputs": [
        {
          "internalType": "string",
          "name": "contractHash",
          "type": "string"
        }
      ],
      "name": "requestAudit",
      "outputs": [],
      "stateMutability": "nonpayable",
      "type": "function"
    },
    {
      "inputs": [
        {
          "internalType": "address",
          "name": "recipient",
          "type": "address"
        },
        {
          "internalType": "uint256",
          "name": "amount",
          "type": "uint256"
        }
      ],
      "name": "rewardTokens",
      "outputs": [],
      "stateMutability": "nonpayable",
      "type": "function"
    },
    {
      "inputs": [],
      "name": "symbol",
      "outputs": [
        {
          "internalType": "string",
          "name": "",
          "type": "string"
        }
      ],
      "stateMutability": "view",
      "type": "function"
    },
    {
      "inputs": [],
      "name": "totalSupply",
      "outputs": [
        {
          "internalType": "uint256",
          "name": "",
          "type": "uint256"
        }
      ],
      "stateMutability": "view",
      "type": "function"
    },
    {
      "inputs": [
        {
          "internalType": "address",
          "name": "to",
          "type": "address"
        },
        {
          "internalType": "uint256",
          "name": "value",
          "type": "uint256"
        }
      ],
      "name": "transfer",
      "outputs": [
        {
          "internalType": "bool",
          "name": "",
          "type": "bool"
        }
      ],
      "stateMutability": "nonpayable",
      "type": "function"
    },
    {
      "inputs": [
        {
          "internalType": "address",
          "name": "from",
          "type": "address"
        },
        {
          "internalType": "address",
          "name": "to",
          "type": "address"
        },
        {
          "internalType": "uint256",
          "name": "value",
          "type": "uint256"
        }
      ],
      "name": "transferFrom",
      "outputs": [
        {
          "internalType": "bool",
          "name": "",
          "type": "bool"
        }
      ],
      "stateMutability": "nonpayable",
      "type": "function"
    },
    {
      "inputs": [
        {
          "internalType": "string",
          "name": "guideHash",
          "type": "string"
        }
      ],
      "name": "uploadGuide",
      "outputs": [],
      "stateMutability": "nonpayable",
      "type": "function"
    },
    {
      "inputs": [
        {
          "internalType": "string",
          "name": "dataHash",
          "type": "string"
        }
      ],
      "name": "validateGuideOrPrompt",
      "outputs": [
        {
          "internalType": "bool",
          "name": "",
          "type": "bool"
        }
      ],
      "stateMutability": "pure",
      "type": "function"
    }
  ],
  "bytecode": "0x60806040523480156200001157600080fd5b506040516200266e3803806200266e833981810160405281019062000037919062000501565b6040518060400160405280600e81526020017f526f6f744149536563546f6b656e0000000000000000000000000000000000008152506040518060400160405280600381526020017f52415300000000000000000000000000000000000000000000000000000000008152508160039081620000b49190620007a3565b508060049081620000c69190620007a3565b5050506001600581905550620000e333826200020460201b60201c565b33600660006101000a81548173ffffffffffffffffffffffffffffffffffffffff021916908373ffffffffffffffffffffffffffffffffffffffff1602179055506001600860003373ffffffffffffffffffffffffffffffffffffffff1673ffffffffffffffffffffffffffffffffffffffff16815260200190815260200160002060006101000a81548160ff0219169083151502179055506007339080600181540180825580915050600190039060005260206000200160009091909190916101000a81548173ffffffffffffffffffffffffffffffffffffffff021916908373ffffffffffffffffffffffffffffffffffffffff160217905550620001fd306b033b2e3c9fd0803ce80000006200020460201b60201c565b50620009c1565b600073ffffffffffffffffffffffffffffffffffffffff168273ffffffffffffffffffffffffffffffffffffffff1603620002795760006040517fec442f05000000000000000000000000000000000000000000000000000000008152600401620002709190620008cf565b60405180910390fd5b6200028d600083836200029160201b60201c565b5050565b600073ffffffffffffffffffffffffffffffffffffffff168373ffffffffffffffffffffffffffffffffffffffff1603620002e7578060026000828254620002da91906200091b565b92505081905550620003bd565b60008060008573ffffffffffffffffffffffffffffffffffffffff1673ffffffffffffffffffffffffffffffffffffffff1681526020019081526020016000205490508181101562000376578381836040517fe450d38c0000000000000000000000000000000000000000000000000000000081526004016200036d9392919062000967565b60405180910390fd5b8181036000808673ffffffffffffffffffffffffffffffffffffffff1673ffffffffffffffffffffffffffffffffffffffff16815260200190815260200160002081905550505b600073ffffffffffffffffffffffffffffffffffffffff168273ffffffffffffffffffffffffffffffffffffffff160362000408578060026000828254039250508190555062000455565b806000808473ffffffffffffffffffffffffffffffffffffffff1673ffffffffffffffffffffffffffffffffffffffff168152602001908152602001600020600082825401925050819055505b8173ffffffffffffffffffffffffffffffffffffffff168373ffffffffffffffffffffffffffffffffffffffff167fddf252ad1be2c89b69c2b068fc378daa952ba7f163c4a11628f55a4df523b3ef83604051620004b49190620009a4565b60405180910390a3505050565b600080fd5b6000819050919050565b620004db81620004c6565b8114620004e757600080fd5b50565b600081519050620004fb81620004d0565b92915050565b6000602082840312156200051a5762000519620004c1565b5b60006200052a84828501620004ea565b91505092915050565b600081519050919050565b7f4e487b7100000000000000000000000000000000000000000000000000000000600052604160045260246000fd5b7f4e487b7100000000000000000000000000000000000000000000000000000000600052602260045260246000fd5b60006002820490506001821680620005b557607f821691505b602082108103620005cb57620005ca6200056d565b5b50919050565b60008190508160005260206000209050919050565b60006020601f8301049050919050565b600082821b905092915050565b600060088302620006357fffffffffffffffffffffffffffffffffffffffffffffffffffffffffffffffff82620005f6565b620006418683620005f6565b95508019841693508086168417925050509392505050565b6000819050919050565b6000620006846200067e6200067884620004c6565b62000659565b620004c6565b9050919050565b6000819050919050565b620006a08362000663565b620006b8620006af826200068b565b84845462000603565b825550505050565b600090565b620006cf620006c0565b620006dc81848462000695565b505050565b5b818110156200070457620006f8600082620006c5565b600181019050620006e2565b5050565b601f82111562000753576200071d81620005d1565b6200072884620005e6565b8101602085101562000738578190505b620007506200074785620005e6565b830182620006e1565b50505b505050565b600082821c905092915050565b6000620007786000198460080262000758565b1980831691505092915050565b600062000793838362000765565b9150826002028217905092915050565b620007ae8262000533565b67ffffffffffffffff811115620007ca57620007c96200053e565b5b620007d682546200059c565b620007e382828562000708565b600060209050601f8311600181146200081b576000841562000806578287015190505b62000812858262000785565b86555062000882565b601f1984166200082b86620005d1565b60005b8281101562000855578489015182556001820191506020850194506020810190506200082e565b8683101562000875578489015162000871601f89168262000765565b8355505b6001600288020188555050505b505050505050565b600073ffffffffffffffffffffffffffffffffffffffff82169050919050565b6000620008b7826200088a565b9050919050565b620008c981620008aa565b82525050565b6000602082019050620008e66000830184620008be565b92915050565b7f4e487b7100000000000000000000000000000000000000000000000000000000600052601160045260246000fd5b60006200092882620004c6565b91506200093583620004c6565b925082820190508082111562000950576200094f620008ec565b5b92915050565b6200096181620004c6565b82525050565b60006060820190506200097e6000830186620008be565b6200098d602083018562000956565b6200099c604083018462000956565b949350505050565b6000602082019050620009bb600083018462000956565b92915050565b611c9d80620009d16000396000f3fe608060405234801561001057600080fd5b50600436106101215760003560e01c806370480275116100ad578063a591afbe11610071578063a591afbe1461031a578063a9059cbb14610338578063cf84944214610368578063d1a6929314610386578063dd62ed3e146103b657610121565b8063704802751461027857806370a0823114610294578063714c3cc1146102c457806381a4af15146102e057806395d89b41146102fc57610121565b806323b872dd116100f457806323b872dd146101c2578063313ce567146101f257806340c10f1914610210578063429b62e51461022c5780634649998c1461025c57610121565b806306fdde0314610126578063095ea7b31461014457806311117fc81461017457806318160ddd146101a4575b600080fd5b61012e6103e6565b60405161013b9190611365565b60405180910390f35b61015e6004803603810190610159919061142f565b610478565b60405161016b919061148a565b60405180910390f35b61018e600480360381019061018991906114a5565b61049b565b60405161019b91906114e1565b60405180910390f35b6101ac6104da565b6040516101b9919061150b565b60405180910390f35b6101dc60048036038101906101d79190611526565b6104e4565b6040516101e9919061148a565b60405180910390f35b6101fa610513565b6040516102079190611595565b60405180910390f35b61022a6004803603810190610225919061142f565b61051c565b005b610246600480360381019061024191906115b0565b6105b6565b604051610253919061148a565b60405180910390f35b61027660048036038101906102719190611712565b6105d6565b005b610292600480360381019061028d91906115b0565b610637565b005b6102ae60048036038101906102a991906115b0565b610812565b6040516102bb919061150b565b60405180910390f35b6102de60048036038101906102d99190611712565b61085a565b005b6102fa60048036038101906102f5919061142f565b6108bb565b005b610304610a38565b6040516103119190611365565b60405180910390f35b610322610aca565b60405161032f9190611819565b60405180910390f35b610352600480360381019061034d919061142f565b610b58565b60405161035f919061148a565b60405180910390f35b610370610b7b565b60405161037d919061150b565b60405180910390f35b6103a0600480360381019061039b9190611712565b610b87565b6040516103ad919061148a565b60405180910390f35b6103d060048036038101906103cb919061183b565b610bde565b6040516103dd919061150b565b60405180910390f35b6060600380546103f5906118aa565b80601f0160208091040260200160405190810160405280929190818152602001828054610421906118aa565b801561046e5780601f106104435761010080835404028352916020019161046e565b820191906000526020600020905b81548152906001019060200180831161045157829003601f168201915b5050505050905090565b600080610483610c65565b9050610490818585610c6d565b600191505092915050565b600781815481106104ab57600080fd5b906000526020600020016000915054906101000a900473ffffffffffffffffffffffffffffffffffffffff1681565b6000600254905090565b6000806104ef610c65565b90506104fc858285610c7f565b610507858585610d13565b60019150509392505050565b60006012905090565b600860003373ffffffffffffffffffffffffffffffffffffffff1673ffffffffffffffffffffffffffffffffffffffff16815260200190815260200160002060009054906101000a900460ff166105a8576040517f08c379a000000000000000000000000000000000000000000000000000000000815260040161059f9061194d565b60405180910390fd5b6105b28282610e07565b5050565b60086020528060005260406000206000915054906101000a900460ff1681565b6105de610e89565b3373ffffffffffffffffffffffffffffffffffffffff167f2d5b17c3e52391168dbd4bc8288b774913c3a81c649037bad4b2c62674e2f3de826040516106249190611365565b60405180910390a2610634610ecf565b50565b600660009054906101000a900473ffffffffffffffffffffffffffffffffffffffff1673ffffffffffffffffffffffffffffffffffffffff163373ffffffffffffffffffffffffffffffffffffffff16146106c7576040517f08c379a00000000000000000000000000000000000000000000000000000000081526004016106be906119df565b60405180910390fd5b600860008273ffffffffffffffffffffffffffffffffffffffff1673ffffffffffffffffffffffffffffffffffffffff16815260200190815260200160002060009054906101000a900460ff1615610754576040517f08c379a000000000000000000000000000000000000000000000000000000000815260040161074b90611a4b565b60405180910390fd5b6001600860008373ffffffffffffffffffffffffffffffffffffffff1673ffffffffffffffffffffffffffffffffffffffff16815260200190815260200160002060006101000a81548160ff0219169083151502179055506007819080600181540180825580915050600190039060005260206000200160009091909190916101000a81548173ffffffffffffffffffffffffffffffffffffffff021916908373ffffffffffffffffffffffffffffffffffffffff16021790555050565b60008060008373ffffffffffffffffffffffffffffffffffffffff1673ffffffffffffffffffffffffffffffffffffffff168152602001908152602001600020549050919050565b610862610e89565b3373ffffffffffffffffffffffffffffffffffffffff167fa1b06d2877b6e95209e1fc410265df3623f8a4931e623c2cd35581e3124de464826040516108a89190611365565b60405180910390a26108b8610ecf565b50565b6108c3610e89565b600860003373ffffffffffffffffffffffffffffffffffffffff1673ffffffffffffffffffffffffffffffffffffffff16815260200190815260200160002060009054906101000a900460ff1661094f576040517f08c379a00000000000000000000000000000000000000000000000000000000081526004016109469061194d565b60405180910390fd5b670de0b6b3a7640000816109639190611a9a565b61096c30610812565b10156109ad576040517f08c379a00000000000000000000000000000000000000000000000000000000081526004016109a490611b4e565b60405180910390fd5b6109cb3083670de0b6b3a7640000846109c69190611a9a565b610d13565b8173ffffffffffffffffffffffffffffffffffffffff167f0d3ecba324ef5a283bcbd5d1a966cab18661432ab3575740c588f7a0144b0dfa670de0b6b3a764000083610a179190611a9a565b604051610a24919061150b565b60405180910390a2610a34610ecf565b5050565b606060048054610a47906118aa565b80601f0160208091040260200160405190810160405280929190818152602001828054610a73906118aa565b8015610ac05780601f10610a9557610100808354040283529160200191610ac0565b820191906000526020600020905b815481529060010190602001808311610aa357829003601f168201915b5050505050905090565b60606007805480602002602001604051908101604052809291908181526020018280548015610b4e57602002820191906000526020600020905b8160009054906101000a900473ffffffffffffffffffffffffffffffffffffffff1673ffffffffffffffffffffffffffffffffffffffff1681526020019060010190808311610b04575b5050505050905090565b600080610b63610c65565b9050610b70818585610d13565b600191505092915050565b678ac7230489e8000081565b6000604051602001610b9890611b9f565b6040516020818303038152906040528051906020012082604051602001610bbf9190611be5565b6040516020818303038152906040528051906020012014159050919050565b6000600160008473ffffffffffffffffffffffffffffffffffffffff1673ffffffffffffffffffffffffffffffffffffffff16815260200190815260200160002060008373ffffffffffffffffffffffffffffffffffffffff1673ffffffffffffffffffffffffffffffffffffffff16815260200190815260200160002054905092915050565b600033905090565b610c7a8383836001610ed9565b505050565b6000610c8b8484610bde565b90507fffffffffffffffffffffffffffffffffffffffffffffffffffffffffffffffff8114610d0d5781811015610cfd578281836040517ffb8f41b2000000000000000000000000000000000000000000000000000000008152600401610cf493929190611bfc565b60405180910390fd5b610d0c84848484036000610ed9565b5b50505050565b600073ffffffffffffffffffffffffffffffffffffffff168373ffffffffffffffffffffffffffffffffffffffff1603610d855760006040517f96c6fd1e000000000000000000000000000000000000000000000000000000008152600401610d7c91906114e1565b60405180910390fd5b600073ffffffffffffffffffffffffffffffffffffffff168273ffffffffffffffffffffffffffffffffffffffff1603610df75760006040517fec442f05000000000000000000000000000000000000000000000000000000008152600401610dee91906114e1565b60405180910390fd5b610e028383836110b0565b505050565b600073ffffffffffffffffffffffffffffffffffffffff168273ffffffffffffffffffffffffffffffffffffffff1603610e795760006040517fec442f05000000000000000000000000000000000000000000000000000000008152600401610e7091906114e1565b60405180910390fd5b610e85600083836110b0565b5050565b600260055403610ec5576040517f3ee5aeb500000000000000000000000000000000000000000000000000000000815260040160405180910390fd5b6002600581905550565b6001600581905550565b600073ffffffffffffffffffffffffffffffffffffffff168473ffffffffffffffffffffffffffffffffffffffff1603610f4b5760006040517fe602df05000000000000000000000000000000000000000000000000000000008152600401610f4291906114e1565b60405180910390fd5b600073ffffffffffffffffffffffffffffffffffffffff168373ffffffffffffffffffffffffffffffffffffffff1603610fbd5760006040517f94280d62000000000000000000000000000000000000000000000000000000008152600401610fb491906114e1565b60405180910390fd5b81600160008673ffffffffffffffffffffffffffffffffffffffff1673ffffffffffffffffffffffffffffffffffffffff16815260200190815260200160002060008573ffffffffffffffffffffffffffffffffffffffff1673ffffffffffffffffffffffffffffffffffffffff1681526020019081526020016000208190555080156110aa578273ffffffffffffffffffffffffffffffffffffffff168473ffffffffffffffffffffffffffffffffffffffff167f8c5be1e5ebec7d5bd14f71427d1e84f3dd0314c0f7b2291e5b200ac8c7c3b925846040516110a1919061150b565b60405180910390a35b50505050565b600073ffffffffffffffffffffffffffffffffffffffff168373ffffffffffffffffffffffffffffffffffffffff16036111025780600260008282546110f69190611c33565b925050819055506111d5565b60008060008573ffffffffffffffffffffffffffffffffffffffff1673ffffffffffffffffffffffffffffffffffffffff1681526020019081526020016000205490508181101561118e578381836040517fe450d38c00000000000000000000000000000000000000000000000000000000815260040161118593929190611bfc565b60405180910390fd5b8181036000808673ffffffffffffffffffffffffffffffffffffffff1673ffffffffffffffffffffffffffffffffffffffff16815260200190815260200160002081905550505b600073ffffffffffffffffffffffffffffffffffffffff168273ffffffffffffffffffffffffffffffffffffffff160361121e578060026000828254039250508190555061126b565b806000808473ffffffffffffffffffffffffffffffffffffffff1673ffffffffffffffffffffffffffffffffffffffff168152602001908152602001600020600082825401925050819055505b8173ffffffffffffffffffffffffffffffffffffffff168373ffffffffffffffffffffffffffffffffffffffff167fddf252ad1be2c89b69c2b068fc378daa952ba7f163c4a11628f55a4df523b3ef836040516112c8919061150b565b60405180910390a3505050565b600081519050919050565b600082825260208201905092915050565b60005b8381101561130f5780820151818401526020810190506112f4565b60008484015250505050565b6000601f19601f8301169050919050565b6000611337826112d5565b61134181856112e0565b93506113518185602086016112f1565b61135a8161131b565b840191505092915050565b6000602082019050818103600083015261137f818461132c565b905092915050565b6000604051905090565b600080fd5b600080fd5b600073ffffffffffffffffffffffffffffffffffffffff82169050919050565b60006113c68261139b565b9050919050565b6113d6816113bb565b81146113e157600080fd5b50565b6000813590506113f3816113cd565b92915050565b6000819050919050565b61140c816113f9565b811461141757600080fd5b50565b60008135905061142981611403565b92915050565b6000806040838503121561144657611445611391565b5b6000611454858286016113e4565b92505060206114658582860161141a565b9150509250929050565b60008115159050919050565b6114848161146f565b82525050565b600060208201905061149f600083018461147b565b92915050565b6000602082840312156114bb576114ba611391565b5b60006114c98482850161141a565b91505092915050565b6114db816113bb565b82525050565b60006020820190506114f660008301846114d2565b92915050565b611505816113f9565b82525050565b600060208201905061152060008301846114fc565b92915050565b60008060006060848603121561153f5761153e611391565b5b600061154d868287016113e4565b935050602061155e868287016113e4565b925050604061156f8682870161141a565b9150509250925092565b600060ff82169050919050565b61158f81611579565b82525050565b60006020820190506115aa6000830184611586565b92915050565b6000602082840312156115c6576115c5611391565b5b60006115d4848285016113e4565b91505092915050565b600080fd5b600080fd5b7f4e487b7100000000000000000000000000000000000000000000000000000000600052604160045260246000fd5b61161f8261131b565b810181811067ffffffffffffffff8211171561163e5761163d6115e7565b5b80604052505050565b6000611651611387565b905061165d8282611616565b919050565b600067ffffffffffffffff82111561167d5761167c6115e7565b5b6116868261131b565b9050602081019050919050565b82818337600083830152505050565b60006116b56116b084611662565b611647565b9050828152602081018484840111156116d1576116d06115e2565b5b6116dc848285611693565b509392505050565b600082601f8301126116f9576116f86115dd565b5b81356117098482602086016116a2565b91505092915050565b60006020828403121561172857611727611391565b5b600082013567ffffffffffffffff81111561174657611745611396565b5b611752848285016116e4565b91505092915050565b600081519050919050565b600082825260208201905092915050565b6000819050602082019050919050565b611790816113bb565b82525050565b60006117a28383611787565b60208301905092915050565b6000602082019050919050565b60006117c68261175b565b6117d08185611766565b93506117db83611777565b8060005b8381101561180c5781516117f38882611796565b97506117fe836117ae565b9250506001810190506117df565b5085935050505092915050565b6000602082019050818103600083015261183381846117bb565b905092915050565b6000806040838503121561185257611851611391565b5b6000611860858286016113e4565b9250506020611871858286016113e4565b9150509250929050565b7f4e487b7100000000000000000000000000000000000000000000000000000000600052602260045260246000fd5b600060028204905060018216806118c257607f821691505b6020821081036118d5576118d461187b565b5b50919050565b7f4f6e6c792061646d696e732063616e2063616c6c20746869732066756e63746960008201527f6f6e000000000000000000000000000000000000000000000000000000000000602082015250565b60006119376022836112e0565b9150611942826118db565b604082019050919050565b600060208201905081810360008301526119668161192a565b9050919050565b7f4f6e6c792063726561746f722063616e2063616c6c20746869732066756e637460008201527f696f6e0000000000000000000000000000000000000000000000000000000000602082015250565b60006119c96023836112e0565b91506119d48261196d565b604082019050919050565b600060208201905081810360008301526119f8816119bc565b9050919050565b7f4164647265737320697320616c726561647920616e2061646d696e0000000000600082015250565b6000611a35601b836112e0565b9150611a40826119ff565b602082019050919050565b60006020820190508181036000830152611a6481611a28565b9050919050565b7f4e487b7100000000000000000000000000000000000000000000000000000000600052601160045260246000fd5b6000611aa5826113f9565b9150611ab0836113f9565b9250828202611abe816113f9565b91508282048414831517611ad557611ad4611a6b565b5b5092915050565b7f496e73756666696369656e742062616c616e636520696e2074686520636f6e7460008201527f7261637420746f20726577617264000000000000000000000000000000000000602082015250565b6000611b38602e836112e0565b9150611b4382611adc565b604082019050919050565b60006020820190508181036000830152611b6781611b2b565b9050919050565b600081905092915050565b50565b6000611b89600083611b6e565b9150611b9482611b79565b600082019050919050565b6000611baa82611b7c565b9150819050919050565b6000611bbf826112d5565b611bc98185611b6e565b9350611bd98185602086016112f1565b80840191505092915050565b6000611bf18284611bb4565b915081905092915050565b6000606082019050611c1160008301866114d2565b611c1e60208301856114fc565b611c2b60408301846114fc565b949350505050565b6000611c3e826113f9565b9150611c49836113f9565b9250828201905080821115611c6157611c60611a6b565b5b9291505056fea26469706673582212209a3a69abea2cb053bcf7350a61a9c2fbb5e18d3f90b0b310e3e82faec748959564736f6c63430008140033",
  "linkReferences": {},
  "deployedLinkReferences": {}
}